:020000040800F2
:10000000300700208901000839050008DD040008D8
:10001000350500085D030008891000080000000095
:10002000000000000000000000000000210E000899
:100030006103000800000000990C00080D0F000883
:10004000A3010008A3010008A3010008A301000800
:10005000A3010008A3010008A3010008A3010008F0
:10006000A3010008A3010008A3010008A3010008E0
:10007000A3010008A3010008A3010008A3010008D0
:10008000A3010008A3010008A3010008A3010008C0
:10009000A3010008A3010008A3010008A3010008B0
:1000A000A3010008A3010008A3010008A3010008A0
:1000B000710F0008A3010008A3010008A3010008B4
:1000C000A3010008A3010008A3010008A301000880
:1000D000A3010008A3010008A3010008A301000870
:1000E000A3010008A3010008A301000800F002F822
:1000F00000F03AF80AA090E8000C82448344AAF188
:100100000107DA4501D100F02FF8AFF2090EBAE885
:100110000F0013F0010F18BFFB1A43F0010318473B
:10012000FC1B00001C1C0000103A24BF78C878C1DA
:10013000FAD8520724BF30C830C144BF04680C60ED
:10014000704700000023002400250026103A28BF35
:1001500078C1FBD8520728BF30C148BF0B60704739
:100160001FB51FBD10B510BD00F031F81146FFF7E7
:10017000F7FF00F091FF00F04FF803B4FFF7F2FF34
:1001800003BC00F057F800000948804709480047C1
:10019000FEE7FEE7FEE7FEE7FEE7FEE7FEE7FEE737
:1001A000FEE7FEE704480549054A064B7047000094
:1001B000110F0008ED00000830010020300700207A
:1001C00030030020300300207047704770477546A9
:1001D00000F02CF8AE4605006946534620F00700B3
:1001E000854618B020B5FFF7DDFFBDE820404FF091
:1001F00000064FF000074FF000084FF0000B21F011
:100200000701AC46ACE8C009ACE8C009ACE8C009DD
:10021000ACE8C0098D46704710B50446AFF30080C6
:100220002046BDE81040FFF7A8BF00000048704717
:10023000CC00002001491820ABBEFEE726000200DA
:100240007047000010B5044609484078A04202DD1E
:100250000748447805E00648C078A04201DA04481F
:10026000C47803490C70087800F01EFB10BD000034
:100270009100002010B5044605480078001BC4B268
:100280000348047001460878FFF7DCFF10BD00004A
:100290009100002010B50446054800782044C4B2FF
:1002A0000348047001460878FFF7CCFF10BD00003A
:1002B0009100002010B500F0F2FA00F001F810BD36
:1002C00010B50448807803490870887800F0ECFA8B
:1002D00010BD00009100002005480078012804D1DD
:1002E000002003490870012070470020FCE700004F
:1002F000900000201FB50121084600F0CFFC48F611
:100300009F40ADF808000920ADF804000020ADF8CA
:100310000A00ADF8060001A94FF0804000F062FE2F
:1003200001221146900700F053FE0121880700F0DA
:1003300032FE1C208DF8000000208DF801008DF8A1
:10034000020001208DF80300684600F0F7F8002055
:10035000014908701FBD00009000002000BFFEE7AB
:10036000704700EBC001C9004FF0E022516100214D
:1003700091610521116100BF4FF0E021096901F48D
:1003800080310029F8D004214FF0E022116170473C
:100390002DE9F0410246002500260020002300241C
:1003A000002791F803C00CF00F0591F803C00CF082
:1003B000100CBCF1000F03D091F802C04CEA050507
:1003C00091F800C0BCF1000F31D0146800202BE080
:1003D0004FF0010C0CFA00F3B1F800C00CEA030670
:1003E0009E4220D183004FF00F0C0CFA03F7BC4360
:1003F00005FA03FC4CEA040491F803C0BCF1280F91
:1004000006D14FF0010C0CFA00FCC2F814C00AE04F
:1004100091F803C0BCF1480F05D14FF0010C0CFA64
:1004200000FCC2F810C0401C0828D1D31460B1F8F9
:1004300000C0BCF1FF0F34DD546800202EE000F155
:10044000080C4FF0010808FA0CF3B1F800C00CEAF0
:1004500003069E4221D183004FF00F0C0CFA03F7E4
:10046000BC4305FA03FC4CEA040491F803C0BCF158
:10047000280F05D100F1080C08FA0CF8C2F8148016
:1004800091F803C0BCF1480F07D100F1080C4FF000
:10049000010808FA0CF8C2F81080401C0828CED3D6
:1004A0005460BDE8F0810246002093680B400BB118
:1004B000012000E00020704702460020D3680B4076
:1004C0000BB1012000E000207047416170470161DD
:1004D00070470AB1016100E04161704700BFFEE76B
:1004E00010B54FF400510648FFF7E6FF18B9012098
:1004F0000449086002E000200249086010BD0000C5
:1005000000100140B401224208B50121102000F082
:10051000D5FB4FF40050ADF8000002208DF802002A
:1005200010208DF8030069460148FFF731FF08BD30
:100530000010014000BFFEE77047000070B50021C9
:1005400000230F22C47804B3154C246804F4E0643B
:10055000C4F5E064210AC1F10403CA40447804FAF6
:1005600003F184781440214309010E4C0678A1550B
:10057000047804F01F050124AC4005786D11AD002E
:1005800005F1E025C5F8004109E0047804F01F05F5
:100590000124AC40044D0678761145F8264070BD24
:1005A0000CED00E000E400E080E100E002490143DE
:1005B000024A1160704700000000FA050CED00E0EF
:1005C00038B50446009403E04FF47A7000F004F864
:1005D000601E041EF8D138BD10B504462046FFF752
:1005E000C0FE10BD08B50121082000F067FB1020F7
:1005F0008DF8030003208DF802004020ADF80000C4
:1006000069460C48FFF7C4FE8020ADF8000069463B
:100610000848FFF7BDFE012240210648FFF759FFB9
:10062000012280210348FFF754FF4FF4FA70FFF7CF
:10063000C7FF08BD000C014038B504460121082061
:1006400000F03CFB03208DF802008020ADF8000094
:100650001CB910208DF8030002E004208DF803007F
:1006600069460248FFF794FE38BD0000000C0140C7
:1006700070B505460020FFF7DFFF002240211A4831
:10068000FFF727FF0220FFF7A7FF002419E08020D3
:10069000204100EA050280211348FFF71AFF0122DA
:1006A00040211148FFF715FF0220FFF795FF0022B8
:1006B00040210D48FFF70DFF0220FFF78DFF601C62
:1006C000C4B2082CE3DB012240210748FFF701FFF9
:1006D0000220FFF781FF002240210348FFF7F9FEC7
:1006E0000220FFF779FF70BD000C014010B5012218
:1006F00080210B48FFF7EDFE012240210848FFF75B
:10070000E8FE002280210648FFF7E3FE0220FFF703
:1007100063FF002240210248FFF7DBFE10BD00000E
:10072000000C014010B5002280210848FFF7D1FEDF
:10073000012240210548FFF7CCFE0220FFF74CFFC5
:10074000012280210148FFF7C4FE10BD000C0140CA
:1007500010B5FFF747FF00F09AF810BD2DE9F047FC
:1007600004460D462612E7B24FEA252805F0FF0998
:10077000052000F026F9FFF7B9FF8020FFF778FF8A
:100780000520FFF775FF3046FFF772FF3846FFF789
:100790006FFF4046FFF76CFF4846FFF769FFFFF722
:1007A000C1FFBDE8F0872DE9F04704460D4626124B
:1007B000E7B24FEA252805F0FF09092000F001F90A
:1007C000FFF794FF8020FFF753FF0920FFF750FF4A
:1007D0003046FFF74DFF3846FFF74AFF4046FFF728
:1007E00047FF4846FFF744FFFFF79CFFBDE8F0874F
:1007F0002DE9F04704460D462612E7B24FEA2528B8
:1008000005F0FF090D2000F0DCF8FFF76FFF8020F6
:10081000FFF72EFF0D20FFF72BFF3046FFF728FFD5
:100820003846FFF725FF4046FFF722FF4846FFF70F
:100830001FFFFFF777FFBDE8F0872DE9F04704467B
:100840000D462612E7B24FEA252805F0FF091120D0
:1008500000F0B7F8FFF74AFF8020FFF709FF1120EB
:10086000FFF706FF3046FFF703FF3846FFF700FFAC
:100870004046FFF7FDFE4846FFF7FAFEFFF752FF3E
:10088000BDE8F08710B5012000F09BF810BD10B551
:10089000FF2000F096F86420FFF792FE10BD10B51F
:1008A000212000F08EF810BD70B504462512E6B286
:1008B000222000F086F8FFF719FF8020FFF7D8FE0E
:1008C0002220FFF7D5FE2846FFF7D2FE3046FFF77D
:1008D000CFFEFFF727FF70BD10B5242000F071F8A0
:1008E00010BD70B504462512E6B2252000F069F867
:1008F000FFF7FCFE8020FFF7BBFE2520FFF7B8FEC8
:100900002846FFF7B5FE3046FFF7B2FEFFF70AFFB5
:1009100070BD10B5272000F054F810BD70B5044626
:100920002512E6B2282000F04CF8FFF7DFFE802009
:10093000FFF79EFE2820FFF79BFE2846FFF798FE54
:100940003046FFF795FEFFF7EDFE70BD10B52A208B
:1009500000F037F810BD70B504462512E6B22B2022
:1009600000F02FF8FFF7C2FE8020FFF781FE2B205A
:10097000FFF77EFE2846FFF77BFE3046FFF778FE46
:10098000FFF7D0FE70BD10B5322000F01AF810BD90
:1009900010B5312000F015F810BD10B5302000F072
:1009A00010F810BD10B5352000F00BF810BD10B5D3
:1009B000342000F006F810BD10B5332000F001F827
:1009C00010BD10B50446FFF791FE8020FFF750FEE2
:1009D0000020FFF74DFE2046FFF74AFEFFF7A2FE7C
:1009E00010BD000010B510210148FFF770FD10BDCB
:1009F0000008014010B510210148FFF766FD10BD49
:100A0000000801402DE9F041044601250026002799
:100A10001EE004F0010010B100F02AF801E000F03F
:100A20002FF86410642000F033F800F0EBF8642035
:100A300000F02EF800F012F808B17019C6B268067E
:100A4000050E00F0D7F8012000F022F8781CC7B29C
:100A5000072FDEDD3046BDE8F081000010B54021F3
:100A60000248FFF720FD0446204610BD0008014063
:100A700010B580210148FFF72AFD10BD0008014094
:100A800010B580210148FFF720FD10BD000801408E
:100A900000E0401E0028FCD1704710B5FFF7AAFF08
:100AA0006420FFF7F5FF0120FFF7ACFF4320FFF7BD
:100AB000A9FF0020FFF7A6FF0120FFF7A3FF0020FA
:100AC000FFF7A0FF0020FFF79DFF0020FFF79AFF30
:100AD0000020FFF797FF0020FFF794FFFFF782FF4A
:100AE0006420FFF7D5FF10BD10B5FFF783FF64202A
:100AF000FFF7CEFF0120FFF785FF4320FFF782FFBE
:100B00000020FFF77FFF0020FFF77CFF5A20FFF750
:100B100079FF5A20FFF776FF5A20FFF773FF5A201C
:100B2000FFF770FF5A20FFF76DFFFFF75BFF6420B0
:100B3000FFF7AEFF10BD000008B50121042000F052
:100B4000BDF8B020ADF8000010208DF803000320A0
:100B50008DF8020069460848FFF71AFC4020ADF8FE
:100B6000000048208DF8030003208DF8020069463C
:100B70000148FFF70DFC08BD0008014010B5FFF764
:100B8000DBFF00F037F8FFF72DFF00F043F800F02F
:100B900041F800F03FF8FFF780FF00F056F8FFF74C
:100BA000A3FF00F0D1FC10BD10B50024FFF722FF19
:100BB0000A20FFF76DFF00BF0FE0022C06DA0B4999
:100BC000085DFFF71FFF0A49085504E00020FFF702
:100BD00019FF07490855601CC4B2092CEDDBFFF76B
:100BE00001FF0A20FFF754FF10BD000005000020A0
:100BF000B400002010B520210148FFF768FC10BDAB
:100C00000008014010B520210148FFF75EFC10BD2F
:100C10000008014010B5FFF7EDFE6420FFF738FF34
:100C20000120FFF7EFFE4220FFF7ECFE0020FFF768
:100C3000E9FE0020FFF7E6FE0020FFF7E3FEFFF7E6
:100C4000D1FE6420FFF724FF10BD10B5FFF7D2FEE0
:100C50006420FFF71DFF0120FFF7D4FE4420FFF7BB
:100C6000D1FE0020FFF7CEFE0120FFF7CBFEEE20E5
:100C7000FFF7C8FE0020FFF7C5FE0020FFF7C2FE09
:100C80000020FFF7BFFE0020FFF7BCFEFFF7AAFE23
:100C90006420FFF7FDFE10BD7047000029B1064A31
:100CA000D2690243044BDA6104E0034AD269824309
:100CB000014BDA61704700000010024029B1064A7A
:100CC00092690243044B9A6104E0034A92698243A9
:100CD000014B9A61704700000010024010B50446B5
:100CE000074800782044C4B20548C078A04201DA21
:100CF0000348C478024804702046FFF72CFE10BD5C
:100D00009D00002010B5FFF7E7FDFFF702FEFFF79B
:100D10001DFE00F065F810BD10B5044607480078C8
:100D20002044C4B20548C078A04201DA0348C47820
:100D3000024804702046FFF7F1FD10BD9900002025
:100D400010B5044607480078001BC4B20548407837
:100D5000A04201DD03484478024804702046FFF7B2
:100D6000FAFD10BD9D00002010B50446074800782C
:100D7000001BC4B205484078A04201DD0348447816
:100D8000024804702046FFF7C9FD10BD99000020FD
:100D900010B5044607480078001BC4B205484078E7
:100DA000A04201DD03484478024804702046FFF762
:100DB00098FD10BD9500002010B504460748007846
:100DC0002044C4B20548C078A04201DA0348C47880
:100DD000024804702046FFF784FD10BD95000020F6
:100DE00010B50C4880780B4908700B4880780A4988
:100DF00008700A4880780949087006498878FFF722
:100E000070FD05498878FFF789FD04498878FFF768
:100E1000A2FD10BD95000020990000209D0000203B
:100E2000704710B500F002F810BD00000CB50020AE
:100E3000019000903348006840F4803031490860E8
:100E400000BF3048006800F4003000900198401C5A
:100E50000190009818B90198B0F5A06FF1D1294818
:100E6000006800F4003010B10120009001E0002083
:100E700000900098012843D12348006840F01000FA
:100E8000214908600846006820F003000860084611
:100E9000006840F0020008601A484068194948603C
:100EA0000846406848600846406840F480604860F2
:100EB0000846406820F47C1048600846406840F4CA
:100EC000E81048600846006840F08070086000BF85
:100ED0000C48006800F000700028F9D0094840680C
:100EE00020F00300074948600846406840F00200CF
:100EF000486000BF0348406800F00C000828F9D1A2
:100F00000CBD0000001002400020024070470000AD
:100F100010B51348006840F0010011490860084608
:100F20004068104908400E494860084600680E496C
:100F300008400B4908600846006820F480200860DB
:100F40000846406820F4FE0048604FF41F008860A7
:100F5000FFF767FF4FF000600449086010BD000014
:100F6000001002400000FFF8FFFFF6FE08ED00E071
:100F700010B50121880700F01AF830B10121880767
:100F800000F006F801200149087010BD9000002013
:100F9000CA430282704721B1028842F001020280F6
:100FA00004E002884FF6FE731A400280704730B5A5
:100FB0000246002000230024158A05EA01039589D2
:100FC00005EA010413B10CB1012000E0002030BD9E
:100FD0001AB183890B43838102E083898B43838128
:100FE00070470000002202881D4B98420ED01D4B16
:100FF00098420BD0B0F1804F08D01B4B984205D0DF
:101000001A4B984202D01A4B984204D14FF68F7374
:101010001A404B881A43174B984207D0164B9842F8
:1010200004D04FF6FF431A40CB881A4302808B88C6
:1010300083850B8803850A4B98420BD0094B984255
:1010400008D00E4B984205D00D4B984202D00D4B64
:10105000984201D10B7A03860123838270470000F6
:10106000002C014000340140000400400008004012
:10107000000C0040001000400014004000400140FF
:10108000004401400048014000BFFEE710B5FFF7F3
:10109000F9FBFFF70FF910BD08B572B64FF4A06069
:1010A000FFF784FAFFF730FAFFF768FDFFF750FB10
:1010B000FFF728FEFFF7EAFFFFF71CF962B6D9E158
:1010C000FFF70AF90028FAD0EB480078401CEA49FB
:1010D00008700978481C00EBD0714910A0EB410161
:1010E00000297DD100F0FEF9E449087000F02CFAE7
:1010F000E349087008460078012872D1082000F002
:10110000DDF9E0490870052000F0D8F9DE490870E3
:10111000062000F0D3F9DD4908700B2000F0D4F967
:10112000002832D0D748007810B90120FFF744FEDC
:10113000D4480078FF2802D10120FFF729FED348C8
:10114000007810B90120FFF7C9FDD0480078FF28CA
:1011500002D10120FFF7F4FDCB48007810B901203F
:10116000FFF7DAFDC8480078FF2802D10120FFF719
:10117000FBFD0020C6490880C6490880C649088092
:10118000C6490880C6490870DFE000BFBE48007845
:10119000A0F1800BBB4800787F380090BA480078F7
:1011A00000F0C1FA0646BF4ABF4B00F0CFFA044632
:1011B0000022BE4B00F0E2F9804600F087FA834639
:1011C0001FFA8BF0FFF73EF84FF47A72009901FB9B
:1011D00002F000F0BFFC0546B54900F0D3FC01E089
:1011E000B7E02EE0044600F099FC8246BAF1000F09
:1011F00003DD0120AA49087010E0BBF18C0F03DA6F
:101200000220A749087009E0BBF1A00F03DD03200D
:10121000A349087002E00020A14908700FFA8AF083
:101220009B490880CAF1000000B29B490880CAF1BE
:10123000000000B2994908800FFA8AF095490880A9
:1012400083E08F48007802287FD10B2000F03CF922
:1012500098B3052000F038F910B10120FFF7ACFD7C
:10126000072000F031F910B10120FFF791FD0D20AA
:1012700000F02AF910B10120FFF730FD0F2000F037
:1012800023F910B10120FFF75BFD102000F01CF9DD
:1012900010B10120FFF740FD0E2000F015F910B14C
:1012A0000120FFF761FD0020794908807949088015
:1012B000794908807949088047E0FFE70024052044
:1012C00000F002F90746072000F0FEF880461020E3
:1012D00000F0FAF805460E2000F0F6F806461DB1BB
:1012E0000120FEF7C7FF03E016B10120FEF7D2FF91
:1012F000012F02D14FF47A7405E0B8F1010F01D14A
:101300006C4C00E00024002C03DA012064490870D2
:101310000CE01DB102206249087007E01EB10320F5
:101320005F49087002E000205D490870604200B229
:101330005749088020B25849088020B25749088090
:10134000604200B25349088000BF4D4800785A49B6
:10135000087049480078401C052190FBF1F201FB20
:10136000120088BB4A48B0F90000002806DB484854
:10137000008881B20020FFF7F1F906E044490988AE
:10138000494288B20021FFF7E9F94348B0F900006B
:10139000002806DB4048008881B20020FFF703FAEE
:1013A00006E03D490988494288B20021FFF7FBF970
:1013B0003A48B0F90000002807DB3848008881B2BD
:1013C0000020FFF715FA07E019E03449098849427F
:1013D00088B20021FFF70CFA2E48B0F9000000286F
:1013E00006DB2C48008881B20020FFF726FA06E0D1
:1013F00028490988494288B20021FFF71EFA1E4891
:101400000078401C322190FBF1F201FB120018BB66
:101410002348007830B1012809D002280CD00328D5
:1014200014D10EE0FFF7B4FAFFF7C1FA13E0FFF7AB
:10143000B4FAFFF7C1FA0EE0FFF7A5FAFFF7B7FA23
:1014400009E0FFF7A5FAFFF7ADFA04E0FFF7A0FA0D
:10145000FFF7ADFA00BF00BF07480078401CC82165
:1014600090FBF1F201FB120020B9FFF739F80020E0
:101470000149087024E60000AE000020A200002010
:10148000A3000020B0000020B1000020B200002026
:10149000A6000020AC000020A8000020AA00002028
:1014A000AF00002014AE47E17A14CE3F00005E404A
:1014B0002497FF3B18FCFFFFA400002001460148D1
:1014C000405C7047B40000200146012901DA002089
:1014D0007047481E024A02EBC0000079F8E700009E
:1014E0001000002070B50025FFF75EFB1348C078A0
:1014F0001249097940EA012011490860042419E0E1
:10150000104810F83400401E012101FA00F00C4987
:101510000968084038B901200A4901EBC401486054
:10152000681CC5B204E00020064901EBC401486014
:10153000601CC4B2102CE3DB284670BDB400002050
:1015400000000020100000200A484078732803D1D2
:101550000120094908700AE006484078412803D173
:1015600002200549087002E0002003490870024883
:1015700000787047B40000200400002010B591EA04
:10158000030F48BF83F0004300F1E681841A71EB3A
:10159000030C05D2121943EB0C03001B61EB0C0189
:1015A000DFF824E14FEA1154A4EB135C1EEA430F69
:1015B00018BF9EEA445F73D023EA0E03DCF1200ECD
:1015C00021EA045143F4801332D322FA0CFE10EBCB
:1015D0000E0023FA0CFE41EB0E01CCF1200E03FAB3
:1015E0000EFE10EB0E0051F10001B1F5801FCCF1A1
:1015F000200E32D201EB045112FA0EF2BDE8104077
:1016000058BF7047401C38BF5FEA420218BF70479E
:10161000002814BF20F0010041F100014FEA41030E
:1016200013F5001F38BF7047A1F1C04100F086B923
:10163000012A43EB0302ACF1200CDCF11F0E32BF98
:101640004FF0000E23FA0CF310EB030041EB0451B2
:10165000B4EB115FD0D0A1EB045101F58011490822
:101660005FEA300001EB04510ED350F1000038BFA7
:1016700012FA0EFE08D1BDE81040C9E7401C38BF81
:101680005FEA4202CAD1C3E7BDE810404FEA410316
:1016900013F5001F38BF7047A1F1C04100F04EB9EB
:1016A0009EEA445F08D011EA5E0FBDE8104004BF17
:1016B00001F0004100207047BDE8104070B500F017
:1016C000EFF800BF64FBBE3E0000E0FF4FEA11539D
:1016D000A3F58063D3F11E03A8BFD3F1200C08DB70
:1016E0004FF0004242EAC12252EA505232FA03F06D
:1016F000704709420BD4102BC4BF0020704703F57C
:10170000787CBCF1FF3F05D04FF0FF3070474FF0C1
:101710000000704770B500F0C3F800BF4992248004
:1017200000207047F0E7B0FA80F310FA03F10AD016
:10173000C3F11D0303F580634FEA41504FEA0352A2
:1017400002EBD12170474FF000007047DFF848C12D
:1017500070B51CEA111E1EBF1CEA13159EEA0C0F81
:1017600095EA0C0F00F06F8081EA030423EA4C1322
:101770004EEAD47E21EA4C1141F4801143F48013E7
:10178000AE44A1FB024CA0FB0365AEF17F7E36198F
:1017900055EB0C05A1FB034C4CF10003A0FB021C14
:1017A00016EB0C06654153F10003094218BF46F0E1
:1017B000010613F4007F0BD14FEA03314FEA0530E5
:1017C000340341EA155140EA16506FF003020AE073
:1017D0004FEAC3214FEAC520F40241EA555140EADD
:1017E00056506FF0020202EB2E4201EB025585EAE1
:1017F000CE710AD05FEA440C18BF24F0004450F1C7
:10180000000041F1000120EAD47040F2FE7C624504
:1018100000D270BDA84214BF4FF080444FF0404446
:10182000002E08BF0024BEF1806FA8BFA1F1C04107
:10183000BDE8704080F282804FF0000001F1C041AD
:1018400001F0004170479EEA0C0F0CEA131518BF17
:1018500095EA0C0F06D04FF0000081EA030E0EF05F
:10186000004170BD00F01CF88900013E00F007B88F
:1018700000F009B84FEA430C5FEA5C5C08D081EAEB
:10188000030100F05BB84FEA410C5FEA5C5CF6D103
:101890004FF00000014970470000FF070000F87F8B
:1018A0000EF1020E2EF0030E5EF8046B364205D4E4
:1018B000012A43EB030515F5001F12D8012841EB5F
:1018C000010C1CF5001F0CD80ED14FEAD17C15F588
:1018D000001F0CEB4C0C0CF1020C08BF4CEBD37C42
:1018E00004E04FF0080C01E04FEAD37C0CEB4C0510
:1018F00026FA05F606F00706B6F1040C06D20EEB42
:10190000860CBDE870404CF0010C6047DFE80CF03D
:10191000090B02024FF000414FF00000A1F5002139
:1019200070BD19461046012851EB010418BFD4F5CB
:10193000001484BF002001F0004170BD0808A0F52C
:1019400000114FEA3101704710B591EA030F48BF0B
:1019500083F000433FF51AAE841A71EB030C07D2F3
:1019600012198CF0004C43EB0C03001B61EB0C01D3
:10197000DFF8A4E14FEA1154A4EB135C1EEA430F15
:1019800018BF9EEA445F00F0B08023EA6E03524223
:1019900021EA0451C3EB6E0338BF5B1EDCF1200E5D
:1019A00025D322FA0CFE10EB0E0043FA0CFE41EB9D
:1019B0000E01CCF1200E03FA0EFE10EB0E0051F1D9
:1019C0000001CCF1200E29D412FA0EF201EB0451E1
:1019D000BDE8104058BF7047401C1CBFB2F1004F1B
:1019E000704700280CBF491C20F00100704712EB23
:1019F000020E43EB030218BF4FF0010E4EEA420203
:101A0000ACF1200CDCF11E0E54D943FA0CFE10EBA5
:101A10000E0051F1FF31CCF11E0ED5D50EF1010EA5
:101A200012FA0EFE404141EB010101EB445C5FEA1A
:101A30005C5C10D910EBDE7001EB045138BFBEF1D5
:101A4000004FBDE8104018BF704700280CBF491C6C
:101A500020F00100704730D24FEAD42C11F500116C
:101A600024F400641BD0B1FA81F20B3AA41AA41E2C
:101A7000D2F12003914030FA03F31943904001EB77
:101A8000CC71002C01EB0451BDE81040A8BF704799
:101A900001F1C0414FF0000001F000417047B0FA81
:101AA00080F310FA03F100D110BDE41A173C480589
:101AB000C90AE4E701EB045110BD491001EB0451E0
:101AC000BDE810404FEA300002E04FF000017047DF
:101AD0004A0008BF0042F8D0B2F5001F28BF704787
:101AE00001F000414FF0000070479EEA445F07D0CC
:101AF00011EA5E0FBDE8104004BF002100207047CE
:101B0000BDE8104070B5FFF7CBFE00BF40DFF63EEA
:101B100083F00041104670470000E0FF41000B0ECB
:101B2000D3F19E0208D950F400034FEA032323FAAD
:101B300002F048BF4042704710B500F0A4F800BF63
:101B400049922480002070476FF0004282EA200012
:101B50007047000010F0004148BF4042B0FA80F3E7
:101B600010FA03F2C3F19D030BD051EAC35101EB0C
:101B70001220530638BF704700F1010008BF20F063
:101B8000010070474FF47F0C1CEAD0121EBF1CEA04
:101B9000D11392EA0C0F93EA0C0F00F0478090EA01
:101BA000010F48BF42F480724FF0004C4CEA002015
:101BB0004CEA012102EB0302A0FB0113A2F5000293
:101BC000002918BF43F001035B0028BF4FEA33032D
:101BD00042EB22425FEA132C4CEBC2502EBFBCEB0F
:101BE000436FB2F57C0F70474FEA036CBCF1004FB6
:101BF00008BF20F00100B2F57C0F38BF70470BD54D
:101C000082F0FF0212F5803FC8BF704700F1C0406C
:101C1000D8BF00F00040704700F5000C5FEA4C0CA4
:101C200048BF7047B0F1C04000F073B890EA010FB0
:101C30000CEAD11348BF42F48072624538BF634555
:101C400004D280EA010000F00040704710B500F0B7
:101C50001AF800BF8900013E00F007B800F009B88B
:101C60005FEA410C5FEA1C6C08D080EA010000F0DA
:101C700050B85FEA400C5FEA1C6CF6D14FF00040B0
:101C8000A0F5800070470EF1020E2EF0030E5EF8F4
:101C9000044B244204D44FEA4102B2F17F4F11D8E1
:101CA0004FEA4003B3F17F4F0CD80ED14FEAD07CFE
:101CB000B2F17F4F0CEB4C0C0CF1020C08BF4CEB5B
:101CC000D17C04E04FF0080C01E04FEAD17C0CEB32
:101CD0004C0324FA03F404F00704B4F1040C06D214
:101CE0000EEB840CBDE810404CF0010C6047DFE8BF
:101CF0000CF0070802024FF00040A0F5800010BD74
:101D00000846420018BFD2F1807288BF00F0004040
:101D100010BDFF2141EAD050C00570473C1D0008AE
:101D200000000020B400000028010008F01D000899
:101D3000B40000207C060000440100080000000000
:101D4000000142000000000000000000010000004F
:101D5000000000000200000000000000030000007E
:101D6000000000000400000000000000050000006A
:101D70000000000006000000000000000700000056
:101D80000000000008000000000000000900000042
:101D9000000000000A000000000000000B0000002E
:101DA000000000000C000000000000000D0000001A
:101DB000000000000E000000000000000F00000006
:101DC000000000001000000000000000009678965F
:101DD000BEC8BAC8FA966496FAB4A3B4FA00000072
:101DE00000000000000000000000000000000000F3
:04000005080000ED02
:00000001FF
